{
  "_format": "hh-sol-artifact-1",
  "contractName": "FreelanceEscrow",
  "sourceName": "contracts/FreelanceEscrow.sol",
  "abi": [
    {
      "inputs": [
        {
          "internalType": "address",
          "name": "_usdcToken",
          "type": "address"
        }
      ],
      "stateMutability": "nonpayable",
      "type": "constructor"
    },
    {
      "inputs": [],
      "name": "ReentrancyGuardReentrantCall",
      "type": "error"
    },
    {
      "anonymous": false,
      "inputs": [
        {
          "indexed": true,
          "internalType": "uint256",
          "name": "jobId",
          "type": "uint256"
        }
      ],
      "name": "JobCancelled",
      "type": "event"
    },
    {
      "anonymous": false,
      "inputs": [
        {
          "indexed": true,
          "internalType": "uint256",
          "name": "jobId",
          "type": "uint256"
        }
      ],
      "name": "JobCompleted",
      "type": "event"
    },
    {
      "anonymous": false,
      "inputs": [
        {
          "indexed": true,
          "internalType": "uint256",
          "name": "jobId",
          "type": "uint256"
        },
        {
          "indexed": false,
          "internalType": "address",
          "name": "client",
          "type": "address"
        },
        {
          "indexed": false,
          "internalType": "address",
          "name": "freelancer",
          "type": "address"
        },
        {
          "indexed": false,
          "internalType": "uint256",
          "name": "amount",
          "type": "uint256"
        }
      ],
      "name": "JobCreated",
      "type": "event"
    },
    {
      "anonymous": false,
      "inputs": [
        {
          "indexed": true,
          "internalType": "uint256",
          "name": "jobId",
          "type": "uint256"
        }
      ],
      "name": "JobDisputed",
      "type": "event"
    },
    {
      "anonymous": false,
      "inputs": [
        {
          "indexed": true,
          "internalType": "uint256",
          "name": "jobId",
          "type": "uint256"
        },
        {
          "indexed": false,
          "internalType": "string",
          "name": "workUrl",
          "type": "string"
        }
      ],
      "name": "WorkSubmitted",
      "type": "event"
    },
    {
      "inputs": [
        {
          "internalType": "uint256",
          "name": "_jobId",
          "type": "uint256"
        }
      ],
      "name": "approveWork",
      "outputs": [],
      "stateMutability": "nonpayable",
      "type": "function"
    },
    {
      "inputs": [
        {
          "internalType": "uint256",
          "name": "_jobId",
          "type": "uint256"
        }
      ],
      "name": "cancelJob",
      "outputs": [],
      "stateMutability": "nonpayable",
      "type": "function"
    },
    {
      "inputs": [
        {
          "internalType": "address",
          "name": "_freelancer",
          "type": "address"
        },
        {
          "internalType": "uint256",
          "name": "_amount",
          "type": "uint256"
        }
      ],
      "name": "createJob",
      "outputs": [
        {
          "internalType": "uint256",
          "name": "",
          "type": "uint256"
        }
      ],
      "stateMutability": "nonpayable",
      "type": "function"
    },
    {
      "inputs": [
        {
          "internalType": "uint256",
          "name": "_jobId",
          "type": "uint256"
        }
      ],
      "name": "disputeJob",
      "outputs": [],
      "stateMutability": "nonpayable",
      "type": "function"
    },
    {
      "inputs": [
        {
          "internalType": "uint256",
          "name": "_jobId",
          "type": "uint256"
        }
      ],
      "name": "getJob",
      "outputs": [
        {
          "components": [
            {
              "internalType": "address",
              "name": "client",
              "type": "address"
            },
            {
              "internalType": "address",
              "name": "freelancer",
              "type": "address"
            },
            {
              "internalType": "uint256",
              "name": "amount",
              "type": "uint256"
            },
            {
              "internalType": "uint256",
              "name": "createdAt",
              "type": "uint256"
            },
            {
              "internalType": "enum FreelanceEscrow.JobStatus",
              "name": "status",
              "type": "uint8"
            },
            {
              "internalType": "string",
              "name": "workUrl",
              "type": "string"
            },
            {
              "internalType": "bool",
              "name": "clientApproved",
              "type": "bool"
            },
            {
              "internalType": "bool",
              "name": "aiApproved",
              "type": "bool"
            }
          ],
          "internalType": "struct FreelanceEscrow.Job",
          "name": "",
          "type": "tuple"
        }
      ],
      "stateMutability": "view",
      "type": "function"
    },
    {
      "inputs": [],
      "name": "jobCounter",
      "outputs": [
        {
          "internalType": "uint256",
          "name": "",
          "type": "uint256"
        }
      ],
      "stateMutability": "view",
      "type": "function"
    },
    {
      "inputs": [
        {
          "internalType": "uint256",
          "name": "",
          "type": "uint256"
        }
      ],
      "name": "jobs",
      "outputs": [
        {
          "internalType": "address",
          "name": "client",
          "type": "address"
        },
        {
          "internalType": "address",
          "name": "freelancer",
          "type": "address"
        },
        {
          "internalType": "uint256",
          "name": "amount",
          "type": "uint256"
        },
        {
          "internalType": "uint256",
          "name": "createdAt",
          "type": "uint256"
        },
        {
          "internalType": "enum FreelanceEscrow.JobStatus",
          "name": "status",
          "type": "uint8"
        },
        {
          "internalType": "string",
          "name": "workUrl",
          "type": "string"
        },
        {
          "internalType": "bool",
          "name": "clientApproved",
          "type": "bool"
        },
        {
          "internalType": "bool",
          "name": "aiApproved",
          "type": "bool"
        }
      ],
      "stateMutability": "view",
      "type": "function"
    },
    {
      "inputs": [],
      "name": "platform",
      "outputs": [
        {
          "internalType": "address",
          "name": "",
          "type": "address"
        }
      ],
      "stateMutability": "view",
      "type": "function"
    },
    {
      "inputs": [],
      "name": "platformFeePercent",
      "outputs": [
        {
          "internalType": "uint256",
          "name": "",
          "type": "uint256"
        }
      ],
      "stateMutability": "view",
      "type": "function"
    },
    {
      "inputs": [
        {
          "internalType": "uint256",
          "name": "_jobId",
          "type": "uint256"
        },
        {
          "internalType": "uint256",
          "name": "_clientPercent",
          "type": "uint256"
        }
      ],
      "name": "resolveDispute",
      "outputs": [],
      "stateMutability": "nonpayable",
      "type": "function"
    },
    {
      "inputs": [
        {
          "internalType": "uint256",
          "name": "_jobId",
          "type": "uint256"
        },
        {
          "internalType": "bool",
          "name": "_approved",
          "type": "bool"
        }
      ],
      "name": "setAIApproval",
      "outputs": [],
      "stateMutability": "nonpayable",
      "type": "function"
    },
    {
      "inputs": [
        {
          "internalType": "uint256",
          "name": "_newFeePercent",
          "type": "uint256"
        }
      ],
      "name": "setPlatformFee",
      "outputs": [],
      "stateMutability": "nonpayable",
      "type": "function"
    },
    {
      "inputs": [
        {
          "internalType": "uint256",
          "name": "_jobId",
          "type": "uint256"
        },
        {
          "internalType": "string",
          "name": "_workUrl",
          "type": "string"
        }
      ],
      "name": "submitWork",
      "outputs": [],
      "stateMutability": "nonpayable",
      "type": "function"
    },
    {
      "inputs": [],
      "name": "usdcToken",
      "outputs": [
        {
          "internalType": "contract IERC20",
          "name": "",
          "type": "address"
        }
      ],
      "stateMutability": "view",
      "type": "function"
    }
  ],
  "bytecode": "0x608060405260c860035534801561001557600080fd5b5060405161199738038061199783398101604081905261003491610067565b6001600081905580546001600160a01b039092166001600160a01b03199283161790556002805490911633179055610097565b60006020828403121561007957600080fd5b81516001600160a01b038116811461009057600080fd5b9392505050565b6118f1806100a66000396000f3fe608060405234801561001057600080fd5b50600436106100ea5760003560e01c806350355d761161008c578063bdc84ac311610066578063bdc84ac3146101da578063bf22c457146101ed578063d93d9beb1461020d578063da8accf91461022057600080fd5b806350355d76146101b55780638c639a85146101be578063a3d5b12f146101c757600080fd5b80631dffa3dc116100c85780631dffa3dc1461015b5780633d01e0fa1461016e5780633f2a66f8146101815780634bde38c8146101a257600080fd5b806311eac855146100ef57806312e8e2c31461011f578063180aedf314610134575b600080fd5b600154610102906001600160a01b031681565b6040516001600160a01b0390911681526020015b60405180910390f35b61013261012d36600461138f565b610233565b005b61014761014236600461138f565b6102ac565b604051610116989796959493929190611426565b61013261016936600461138f565b610390565b61013261017c36600461138f565b610598565b61019461018f366004611489565b610661565b604051908152602001610116565b600254610102906001600160a01b031681565b61019460055481565b61019460035481565b6101326101d53660046114d2565b61099b565b6101326101e8366004611502565b610a59565b6102006101fb36600461138f565b610d4a565b6040516101169190611524565b61013261021b36600461138f565b610ec4565b61013261022e3660046115cc565b610ffa565b6002546001600160a01b031633146102665760405162461bcd60e51b815260040161025d90611687565b60405180910390fd5b6103e88111156102a75760405162461bcd60e51b815260206004820152600c60248201526b0cccaca40e8dede40d0d2ced60a31b604482015260640161025d565b600355565b60046020819052600091825260409091208054600182015460028301546003840154948401546005850180546001600160a01b03958616979490951695929460ff90921692916102fb906116ae565b80601f0160208091040260200160405190810160405280929190818152602001828054610327906116ae565b80156103745780601f1061034957610100808354040283529160200191610374565b820191906000526020600020905b81548152906001019060200180831161035757829003601f168201915b5050506006909301549192505060ff8082169161010090041688565b600081815260046020526040902080546001600160a01b031633146103e55760405162461bcd60e51b815260206004820152600b60248201526a1bdb9b1e4818db1a595b9d60aa1b604482015260640161025d565b600060048083015460ff1690811115610400576104006113a8565b1461044d5760405162461bcd60e51b815260206004820152601c60248201527f63616e742063616e63656c206166746572207375626d697373696f6e00000000604482015260640161025d565b600381015461045f90620151806116fe565b42106104a25760405162461bcd60e51b81526020600482015260126024820152711d1bdbc81b185d19481d1bc818d85b98d95b60721b604482015260640161025d565b6004818101805460ff1916821790556001548254600284015460405163a9059cbb60e01b81526001600160a01b03928316948101949094526024840152169063a9059cbb906044016020604051808303816000875af1158015610509573d6000803e3d6000fd5b505050506040513d601f19601f8201168201806040525081019061052d9190611711565b6105695760405162461bcd60e51b815260206004820152600d60248201526c1c99599d5b990819985a5b1959609a1b604482015260640161025d565b60405182907f58243f872c550ad02802199ade99eb4250f6bb19e9abbf2d3de7b969c0eb5e4f90600090a25050565b600081815260046020526040902080546001600160a01b031633146105ed5760405162461bcd60e51b815260206004820152600b60248201526a1bdb9b1e4818db1a595b9d60aa1b604482015260640161025d565b600160048083015460ff1690811115610608576106086113a8565b146106455760405162461bcd60e51b815260206004820152600d60248201526c1b9bdd081cdd589b5a5d1d1959609a1b604482015260640161025d565b60068101805460ff1916600117905561065d8261115d565b5050565b600061066b611365565b600082116106bb5760405162461bcd60e51b815260206004820152601760248201527f616d6f756e74206d75737420626520706f736974697665000000000000000000604482015260640161025d565b6001600160a01b0383166107115760405162461bcd60e51b815260206004820152601a60248201527f696e76616c696420667265656c616e6365722061646472657373000000000000604482015260640161025d565b336001600160a01b0384160361075e5760405162461bcd60e51b815260206004820152601260248201527131b0b73a103434b932903cb7bab939b2b63360711b604482015260640161025d565b6001546040516323b872dd60e01b8152336004820152306024820152604481018490526001600160a01b03909116906323b872dd906064016020604051808303816000875af11580156107b5573d6000803e3d6000fd5b505050506040513d601f19601f820116820180604052508101906107d99190611711565b61081c5760405162461bcd60e51b81526020600482015260146024820152731d5cd918c81d1c985b9cd9995c8819985a5b195960621b604482015260640161025d565b600580546000918261082d83611735565b9091555060408051610100810182523381526001600160a01b038781166020808401918252838501898152426060860190815260006080870181815288518086018a5282815260a089015260c0880182905260e08801829052898252600494859052979020865181549087166001600160a01b031991821617825594516001808301805492909816919096161790955590516002850155516003840155935182850180549697509395929490939260ff1916919084908111156108f2576108f26113a8565b021790555060a0820151600582019061090b908261179c565b5060c0820151600691909101805460e09093015115156101000261ff00199215159290921661ffff1990931692909217179055604080513381526001600160a01b038616602082015290810184905281907f8f4ee83cefe0dfb2f73fe6057bfa5b233fc43358bbb5f5606f444cbd4c5c4f8c9060600160405180910390a290506109956001600055565b92915050565b6002546001600160a01b031633146109c55760405162461bcd60e51b815260040161025d90611687565b6000828152600460205260409020600160048083015460ff16908111156109ee576109ee6113a8565b14610a2b5760405162461bcd60e51b815260206004820152600d60248201526c1b9bdd081cdd589b5a5d1d1959609a1b604482015260640161025d565b600681018054831580156101000261ff001990921691909117909155610a5457610a548361115d565b505050565b6002546001600160a01b03163314610a835760405162461bcd60e51b815260040161025d90611687565b6000828152600460205260409020600360048083015460ff1690811115610aac57610aac6113a8565b14610ae85760405162461bcd60e51b815260206004820152600c60248201526b1b9bdd08191a5cdc1d5d195960a21b604482015260640161025d565b6064821115610b2b5760405162461bcd60e51b815260206004820152600f60248201526e1a5b9d985b1a59081c195c98d95b9d608a1b604482015260640161025d565b60006127106003548360020154610b42919061185c565b610b4c9190611873565b90506000818360020154610b609190611895565b905060006064610b70868461185c565b610b7a9190611873565b90506000610b888284611895565b90508115610c0a57600154855460405163a9059cbb60e01b81526001600160a01b0391821660048201526024810185905291169063a9059cbb906044016020604051808303816000875af1158015610be4573d6000803e3d6000fd5b505050506040513d601f19601f82011682018060405250810190610c089190611711565b505b8015610c8d57600180549086015460405163a9059cbb60e01b81526001600160a01b0391821660048201526024810184905291169063a9059cbb906044016020604051808303816000875af1158015610c67573d6000803e3d6000fd5b505050506040513d601f19601f82011682018060405250810190610c8b9190611711565b505b60015460025460405163a9059cbb60e01b81526001600160a01b0391821660048201526024810187905291169063a9059cbb906044016020604051808303816000875af1158015610ce2573d6000803e3d6000fd5b505050506040513d601f19601f82011682018060405250810190610d069190611711565b5060048501805460ff1916600217905560405187907f02244c8529cb95e213ee542e76e7776342b3dabd10203d01472bbf4441be892990600090a250505050505050565b604080516101008101825260008082526020820181905291810182905260608082018390526080820183905260a082015260c0810182905260e081019190915260008281526004602081815260409283902083516101008101855281546001600160a01b039081168252600183015416928101929092526002810154938201939093526003830154606082015282820154909291608084019160ff1690811115610df657610df66113a8565b6004811115610e0757610e076113a8565b8152602001600582018054610e1b906116ae565b80601f0160208091040260200160405190810160405280929190818152602001828054610e47906116ae565b8015610e945780601f10610e6957610100808354040283529160200191610e94565b820191906000526020600020905b815481529060010190602001808311610e7757829003601f168201915b50505091835250506006919091015460ff8082161515602084015261010090910416151560409091015292915050565b600081815260046020526040902080546001600160a01b0316331480610ef457506002546001600160a01b031633145b610f315760405162461bcd60e51b815260206004820152600e60248201526d1b9bdd08185d5d1a1bdc9a5e995960921b604482015260640161025d565b600160048083015460ff1690811115610f4c57610f4c6113a8565b1480610f705750600060048083015460ff1690811115610f6e57610f6e6113a8565b145b610fbc5760405162461bcd60e51b815260206004820152601a60248201527f63616e74206469737075746520636f6d706c65746564206a6f62000000000000604482015260640161025d565b60048101805460ff1916600317905560405182907fb1dee78cef8c6887046d91c59e17f84fbc012c9f7efa49a10cce97e13cc94bf490600090a25050565b600082815260046020526040902060018101546001600160a01b031633146110645760405162461bcd60e51b815260206004820152601a60248201527f6f6e6c7920667265656c616e6365722063616e207375626d6974000000000000604482015260640161025d565b600060048083015460ff169081111561107f5761107f6113a8565b146110bd5760405162461bcd60e51b815260206004820152600e60248201526d6a6f62206e6f742061637469766560901b604482015260640161025d565b60008251116111025760405162461bcd60e51b81526020600482015260116024820152701ddbdc9ac81d5c9b081c995c5d5a5c9959607a1b604482015260640161025d565b60048101805460ff191660011790556005810161111f838261179c565b50827f3822c71b106c7c1dabf7f076e68c9bd98c45d0cd0d073f4dcdaf422a0fe558478360405161115091906118a8565b60405180910390a2505050565b60008181526004602052604081206003546002820154919291612710916111839161185c565b61118d9190611873565b905060008183600201546111a19190611895565b600180549085015460405163a9059cbb60e01b81526001600160a01b03918216600482015260248101849052929350169063a9059cbb906044016020604051808303816000875af11580156111fa573d6000803e3d6000fd5b505050506040513d601f19601f8201168201806040525081019061121e9190611711565b61126a5760405162461bcd60e51b815260206004820152601960248201527f667265656c616e636572207061796d656e74206661696c656400000000000000604482015260640161025d565b60015460025460405163a9059cbb60e01b81526001600160a01b0391821660048201526024810185905291169063a9059cbb906044016020604051808303816000875af11580156112bf573d6000803e3d6000fd5b505050506040513d601f19601f820116820180604052508101906112e39190611711565b6113255760405162461bcd60e51b81526020600482015260136024820152721c1b185d199bdc9b481999594819985a5b1959606a1b604482015260640161025d565b60048301805460ff1916600217905560405184907f02244c8529cb95e213ee542e76e7776342b3dabd10203d01472bbf4441be892990600090a250505050565b60026000540361138857604051633ee5aeb560e01b815260040160405180910390fd5b6002600055565b6000602082840312156113a157600080fd5b5035919050565b634e487b7160e01b600052602160045260246000fd5b600581106113dc57634e487b7160e01b600052602160045260246000fd5b9052565b6000815180845260005b81811015611406576020818501810151868301820152016113ea565b506000602082860101526020601f19601f83011685010191505092915050565b6001600160a01b038981168252881660208201526040810187905260608101869052600061010061145a60808401886113be565b8060a084015261146c818401876113e0565b94151560c0840152505090151560e0909101529695505050505050565b6000806040838503121561149c57600080fd5b82356001600160a01b03811681146114b357600080fd5b946020939093013593505050565b80151581146114cf57600080fd5b50565b600080604083850312156114e557600080fd5b8235915060208301356114f7816114c1565b809150509250929050565b6000806040838503121561151557600080fd5b50508035926020909101359150565b60208152600060018060a01b03808451166020840152806020850151166040840152506040830151606083015260608301516080830152608083015161156d60a08401826113be565b5060a08301516101008060c085015261158a6101208501836113e0565b915060c085015161159f60e086018215159052565b5060e0850151801515858301525090949350505050565b634e487b7160e01b600052604160045260246000fd5b600080604083850312156115df57600080fd5b82359150602083013567ffffffffffffffff808211156115fe57600080fd5b818501915085601f83011261161257600080fd5b813581811115611624576116246115b6565b604051601f8201601f19908116603f0116810190838211818310171561164c5761164c6115b6565b8160405282815288602084870101111561166557600080fd5b8260208601602083013760006020848301015280955050505050509250929050565b6020808252600d908201526c6f6e6c7920706c6174666f726d60981b604082015260600190565b600181811c908216806116c257607f821691505b6020821081036116e257634e487b7160e01b600052602260045260246000fd5b50919050565b634e487b7160e01b600052601160045260246000fd5b80820180821115610995576109956116e8565b60006020828403121561172357600080fd5b815161172e816114c1565b9392505050565b600060018201611747576117476116e8565b5060010190565b601f821115610a5457600081815260208120601f850160051c810160208610156117755750805b601f850160051c820191505b8181101561179457828155600101611781565b505050505050565b815167ffffffffffffffff8111156117b6576117b66115b6565b6117ca816117c484546116ae565b8461174e565b602080601f8311600181146117ff57600084156117e75750858301515b600019600386901b1c1916600185901b178555611794565b600085815260208120601f198616915b8281101561182e5788860151825594840194600190910190840161180f565b508582101561184c5787850151600019600388901b60f8161c191681555b5050505050600190811b01905550565b8082028115828204841417610995576109956116e8565b60008261189057634e487b7160e01b600052601260045260246000fd5b500490565b81810381811115610995576109956116e8565b60208152600061172e60208301846113e056fea2646970667358221220757762428cedaf018f910aeb50bb8e5793476461fde0e3a1591a92a5c965433664736f6c63430008140033",
  "linkReferences": {},
  "deployedLinkReferences": {}
}